{"abi":[{"type":"constructor","inputs":[],"stateMutability":"nonpayable"},{"type":"receive","stateMutability":"payable"},{"type":"function","name":"buyWithEth","inputs":[{"name":"bookId","type":"uint256","internalType":"uint256"}],"outputs":[],"stateMutability":"payable"},{"type":"function","name":"buyWithToken","inputs":[{"name":"bookId","type":"uint256","internalType":"uint256"}],"outputs":[],"stateMutability":"nonpayable"},{"type":"function","name":"ethPrice","inputs":[{"name":"","type":"uint256","internalType":"uint256"}],"outputs":[{"name":"","type":"uint256","internalType":"uint256"}],"stateMutability":"view"},{"type":"function","name":"hasPurchased","inputs":[{"name":"user","type":"address","internalType":"address"},{"name":"bookId","type":"uint256","internalType":"uint256"}],"outputs":[{"name":"","type":"bool","internalType":"bool"}],"stateMutability":"view"},{"type":"function","name":"owner","inputs":[],"outputs":[{"name":"","type":"address","internalType":"address"}],"stateMutability":"view"},{"type":"function","name":"purchased","inputs":[{"name":"","type":"address","internalType":"address"},{"name":"","type":"uint256","internalType":"uint256"}],"outputs":[{"name":"","type":"bool","internalType":"bool"}],"stateMutability":"view"},{"type":"function","name":"renounceOwnership","inputs":[],"outputs":[],"stateMutability":"nonpayable"},{"type":"function","name":"setBookPrice","inputs":[{"name":"bookId","type":"uint256","internalType":"uint256"},{"name":"ethPriceWei","type":"uint256","internalType":"uint256"},{"name":"tokenPriceJG","type":"uint256","internalType":"uint256"}],"outputs":[],"stateMutability":"nonpayable"},{"type":"function","name":"setTokenAddress","inputs":[{"name":"_token","type":"address","internalType":"address"}],"outputs":[],"stateMutability":"nonpayable"},{"type":"function","name":"tokenAddress","inputs":[],"outputs":[{"name":"","type":"address","internalType":"address"}],"stateMutability":"view"},{"type":"function","name":"tokenPrice","inputs":[{"name":"","type":"uint256","internalType":"uint256"}],"outputs":[{"name":"","type":"uint256","internalType":"uint256"}],"stateMutability":"view"},{"type":"function","name":"transferOwnership","inputs":[{"name":"newOwner","type":"address","internalType":"address"}],"outputs":[],"stateMutability":"nonpayable"},{"type":"function","name":"withdrawEth","inputs":[],"outputs":[],"stateMutability":"nonpayable"},{"type":"function","name":"withdrawToken","inputs":[],"outputs":[],"stateMutability":"nonpayable"},{"type":"event","name":"BoughtEth","inputs":[{"name":"buyer","type":"address","indexed":true,"internalType":"address"},{"name":"bookId","type":"uint256","indexed":true,"internalType":"uint256"},{"name":"amount","type":"uint256","indexed":false,"internalType":"uint256"}],"anonymous":false},{"type":"event","name":"BoughtToken","inputs":[{"name":"buyer","type":"address","indexed":true,"internalType":"address"},{"name":"bookId","type":"uint256","indexed":true,"internalType":"uint256"},{"name":"amount","type":"uint256","indexed":false,"internalType":"uint256"}],"anonymous":false},{"type":"event","name":"OwnershipTransferred","inputs":[{"name":"previousOwner","type":"address","indexed":true,"internalType":"address"},{"name":"newOwner","type":"address","indexed":true,"internalType":"address"}],"anonymous":false},{"type":"event","name":"PriceSet","inputs":[{"name":"bookId","type":"uint256","indexed":true,"internalType":"uint256"},{"name":"ethPrice","type":"uint256","indexed":false,"internalType":"uint256"},{"name":"tokenPrice","type":"uint256","indexed":false,"internalType":"uint256"}],"anonymous":false},{"type":"event","name":"TokenAddressSet","inputs":[{"name":"token","type":"address","indexed":false,"internalType":"address"}],"anonymous":false},{"type":"error","name":"OwnableInvalidOwner","inputs":[{"name":"owner","type":"address","internalType":"address"}]},{"type":"error","name":"OwnableUnauthorizedAccount","inputs":[{"name":"account","type":"address","internalType":"address"}]},{"type":"error","name":"ReentrancyGuardReentrantCall","inputs":[]}],"bytecode":{"object":"0x608060405234801561000f575f5ffd5b50335f73ffffffffffffffffffffffffffffffffffffffff168173ffffffffffffffffffffffffffffffffffffffff1603610081575f6040517f1e4fbdf700000000000000000000000000000000000000000000000000000000815260040161007891906101ec565b60405180910390fd5b610090816100ba60201b60201c565b5060016100af6100a461017b60201b60201c565b6101a460201b60201c565b5f0181905550610205565b5f5f5f9054906101000a900473ffffffffffffffffffffffffffffffffffffffff169050815f5f6101000a81548173ffffffffffffffffffffffffffffffffffffffff021916908373ffffffffffffffffffffffffffffffffffffffff1602179055508173ffffffffffffffffffffffffffffffffffffffff168173ffffffffffffffffffffffffffffffffffffffff167f8be0079c531659141344cd1fd0a4f28419497f9722a3daafe3b4186f6b6457e060405160405180910390a35050565b5f7f9b779b17422d0df92223018b32b4d1fa46e071723d6817e2486d003becc55f005f1b905090565b5f819050919050565b5f73ffffffffffffffffffffffffffffffffffffffff82169050919050565b5f6101d6826101ad565b9050919050565b6101e6816101cc565b82525050565b5f6020820190506101ff5f8301846101dd565b92915050565b6116eb806102125f395ff3fe6080604052600436106100e0575f3560e01c8063a0ef91df1161007e578063d4ddce8a11610058578063d4ddce8a14610251578063d620fb541461028d578063e597ef12146102c9578063f2fde38b14610305576100e7565b8063a0ef91df146101fd578063ac74b42d14610213578063ca628c781461023b576100e7565b8063715018a6116100ba578063715018a6146101775780637649b9571461018d5780638da5cb5b146101a95780639d76ea58146101d3576100e7565b806304ed5917146100eb578063119231321461011357806326a4e8d21461014f576100e7565b366100e757005b5f5ffd5b3480156100f6575f5ffd5b50610111600480360381019061010c9190610fe4565b61032d565b005b34801561011e575f5ffd5b506101396004803603810190610134919061108e565b6103a0565b60405161014691906110e6565b60405180910390f35b34801561015a575f5ffd5b50610175600480360381019061017091906110ff565b610402565b005b348015610182575f5ffd5b5061018b610484565b005b6101a760048036038101906101a2919061112a565b610497565b005b3480156101b4575f5ffd5b506101bd61069c565b6040516101ca9190611164565b60405180910390f35b3480156101de575f5ffd5b506101e76106c3565b6040516101f49190611164565b60405180910390f35b348015610208575f5ffd5b506102116106e8565b005b34801561021e575f5ffd5b506102396004803603810190610234919061112a565b6107e9565b005b348015610246575f5ffd5b5061024f610b2e565b005b34801561025c575f5ffd5b506102776004803603810190610272919061112a565b610cbb565b604051610284919061118c565b60405180910390f35b348015610298575f5ffd5b506102b360048036038101906102ae919061112a565b610cd0565b6040516102c0919061118c565b60405180910390f35b3480156102d4575f5ffd5b506102ef60048036038101906102ea919061108e565b610ce5565b6040516102fc91906110e6565b60405180910390f35b348015610310575f5ffd5b5061032b600480360381019061032691906110ff565b610d0f565b005b610335610d93565b8160025f8581526020019081526020015f20819055508060035f8581526020019081526020015f2081905550827f22db173e2a8b7fa2d933790c01e64878b79e267d813bb3227a15b1c7ac404ffe83836040516103939291906111a5565b60405180910390a2505050565b5f60045f8473ffffffffffffffffffffffffffffffffffffffff1673ffffffffffffffffffffffffffffffffffffffff1681526020019081526020015f205f8381526020019081526020015f205f9054906101000a900460ff16905092915050565b61040a610d93565b8060015f6101000a81548173ffffffffffffffffffffffffffffffffffffffff021916908373ffffffffffffffffffffffffffffffffffffffff1602179055507fd82cad5fdc98633445b90f806f2e1a61a5409f92187ee9cd87f1da18c9069266816040516104799190611164565b60405180910390a150565b61048c610d93565b6104955f610e1a565b565b61049f610edb565b5f60025f8381526020019081526020015f2054116104f2576040517f08c379a00000000000000000000000000000000000000000000000000000000081526004016104e990611226565b60405180910390fd5b60025f8281526020019081526020015f20543414610545576040517f08c379a000000000000000000000000000000000000000000000000000000000815260040161053c9061128e565b60405180910390fd5b60045f3373ffffffffffffffffffffffffffffffffffffffff1673ffffffffffffffffffffffffffffffffffffffff1681526020019081526020015f205f8281526020019081526020015f205f9054906101000a900460ff16156105de576040517f08c379a00000000000000000000000000000000000000000000000000000000081526004016105d5906112f6565b60405180910390fd5b600160045f3373ffffffffffffffffffffffffffffffffffffffff1673ffffffffffffffffffffffffffffffffffffffff1681526020019081526020015f205f8381526020019081526020015f205f6101000a81548160ff021916908315150217905550803373ffffffffffffffffffffffffffffffffffffffff167f33f9349e22b3e832d38c5999de082c1f5916d41ea562d661e61aa8560155d0c534604051610689919061118c565b60405180910390a3610699610efd565b50565b5f5f5f9054906101000a900473ffffffffffffffffffffffffffffffffffffffff16905090565b60015f9054906101000a900473ffffffffffffffffffffffffffffffffffffffff1681565b6106f0610d93565b5f4790505f8111610736576040517f08c379a000000000000000000000000000000000000000000000000000000000815260040161072d9061135e565b60405180910390fd5b5f61073f61069c565b73ffffffffffffffffffffffffffffffffffffffff1682604051610762906113a9565b5f6040518083038185875af1925050503d805f811461079c576040519150601f19603f3d011682016040523d82523d5f602084013e6107a1565b606091505b50509050806107e5576040517f08c379a00000000000000000000000000000000000000000000000000000000081526004016107dc90611407565b60405180910390fd5b5050565b6107f1610edb565b5f73ffffffffffffffffffffffffffffffffffffffff1660015f9054906101000a900473ffffffffffffffffffffffffffffffffffffffff1673ffffffffffffffffffffffffffffffffffffffff1603610880576040517f08c379a00000000000000000000000000000000000000000000000000000000081526004016108779061146f565b60405180910390fd5b5f60035f8381526020019081526020015f2054116108d3576040517f08c379a00000000000000000000000000000000000000000000000000000000081526004016108ca906114d7565b60405180910390fd5b60045f3373ffffffffffffffffffffffffffffffffffffffff1673ffffffffffffffffffffffffffffffffffffffff1681526020019081526020015f205f8281526020019081526020015f205f9054906101000a900460ff161561096c576040517f08c379a0000000000000000000000000000000000000000000000000000000008152600401610963906112f6565b60405180910390fd5b5f60015f9054906101000a900473ffffffffffffffffffffffffffffffffffffffff1673ffffffffffffffffffffffffffffffffffffffff166323b872dd333060035f8781526020019081526020015f20546040518463ffffffff1660e01b81526004016109dc939291906114f5565b6020604051808303815f875af11580156109f8573d5f5f3e3d5ffd5b505050506040513d601f19601f82011682018060405250810190610a1c9190611554565b905080610a5e576040517f08c379a0000000000000000000000000000000000000000000000000000000008152600401610a55906115c9565b60405180910390fd5b600160045f3373ffffffffffffffffffffffffffffffffffffffff1673ffffffffffffffffffffffffffffffffffffffff1681526020019081526020015f205f8481526020019081526020015f205f6101000a81548160ff021916908315150217905550813373ffffffffffffffffffffffffffffffffffffffff167f71c055c2d852c9e1d8ec88df300ab33dfc0bfdc32d3d3a8562868cc47e261a5560035f8681526020019081526020015f2054604051610b1a919061118c565b60405180910390a350610b2b610efd565b50565b610b36610d93565b5f60015f9054906101000a900473ffffffffffffffffffffffffffffffffffffffff1673ffffffffffffffffffffffffffffffffffffffff166370a08231306040518263ffffffff1660e01b8152600401610b919190611164565b602060405180830381865afa158015610bac573d5f5f3e3d5ffd5b505050506040513d601f19601f82011682018060405250810190610bd091906115fb565b90505f8111610c14576040517f08c379a0000000000000000000000000000000000000000000000000000000008152600401610c0b90611670565b60405180910390fd5b60015f9054906101000a900473ffffffffffffffffffffffffffffffffffffffff1673ffffffffffffffffffffffffffffffffffffffff1663a9059cbb610c5961069c565b836040518363ffffffff1660e01b8152600401610c7792919061168e565b6020604051808303815f875af1158015610c93573d5f5f3e3d5ffd5b505050506040513d601f19601f82011682018060405250810190610cb79190611554565b5050565b6003602052805f5260405f205f915090505481565b6002602052805f5260405f205f915090505481565b6004602052815f5260405f20602052805f5260405f205f915091509054906101000a900460ff1681565b610d17610d93565b5f73ffffffffffffffffffffffffffffffffffffffff168173ffffffffffffffffffffffffffffffffffffffff1603610d87575f6040517f1e4fbdf7000000000000000000000000000000000000000000000000000000008152600401610d7e9190611164565b60405180910390fd5b610d9081610e1a565b50565b610d9b610f17565b73ffffffffffffffffffffffffffffffffffffffff16610db961069c565b73ffffffffffffffffffffffffffffffffffffffff1614610e1857610ddc610f17565b6040517f118cdaa7000000000000000000000000000000000000000000000000000000008152600401610e0f9190611164565b60405180910390fd5b565b5f5f5f9054906101000a900473ffffffffffffffffffffffffffffffffffffffff169050815f5f6101000a81548173ffffffffffffffffffffffffffffffffffffffff021916908373ffffffffffffffffffffffffffffffffffffffff1602179055508173ffffffffffffffffffffffffffffffffffffffff168173ffffffffffffffffffffffffffffffffffffffff167f8be0079c531659141344cd1fd0a4f28419497f9722a3daafe3b4186f6b6457e060405160405180910390a35050565b610ee3610f1e565b6002610ef5610ef0610f5f565b610f88565b5f0181905550565b6001610f0f610f0a610f5f565b610f88565b5f0181905550565b5f33905090565b610f26610f91565b15610f5d576040517f3ee5aeb500000000000000000000000000000000000000000000000000000000815260040160405180910390fd5b565b5f7f9b779b17422d0df92223018b32b4d1fa46e071723d6817e2486d003becc55f005f1b905090565b5f819050919050565b5f6002610fa4610f9f610f5f565b610f88565b5f015414905090565b5f5ffd5b5f819050919050565b610fc381610fb1565b8114610fcd575f5ffd5b50565b5f81359050610fde81610fba565b92915050565b5f5f5f60608486031215610ffb57610ffa610fad565b5b5f61100886828701610fd0565b935050602061101986828701610fd0565b925050604061102a86828701610fd0565b9150509250925092565b5f73ffffffffffffffffffffffffffffffffffffffff82169050919050565b5f61105d82611034565b9050919050565b61106d81611053565b8114611077575f5ffd5b50565b5f8135905061108881611064565b92915050565b5f5f604083850312156110a4576110a3610fad565b5b5f6110b18582860161107a565b92505060206110c285828601610fd0565b9150509250929050565b5f8115159050919050565b6110e0816110cc565b82525050565b5f6020820190506110f95f8301846110d7565b92915050565b5f6020828403121561111457611113610fad565b5b5f6111218482850161107a565b91505092915050565b5f6020828403121561113f5761113e610fad565b5b5f61114c84828501610fd0565b91505092915050565b61115e81611053565b82525050565b5f6020820190506111775f830184611155565b92915050565b61118681610fb1565b82525050565b5f60208201905061119f5f83018461117d565b92915050565b5f6040820190506111b85f83018561117d565b6111c5602083018461117d565b9392505050565b5f82825260208201905092915050565b7f455448207072696365206e6f74207365740000000000000000000000000000005f82015250565b5f6112106011836111cc565b915061121b826111dc565b602082019050919050565b5f6020820190508181035f83015261123d81611204565b9050919050565b7f496e636f727265637420455448000000000000000000000000000000000000005f82015250565b5f611278600d836111cc565b915061128382611244565b602082019050919050565b5f6020820190508181035f8301526112a58161126c565b9050919050565b7f416c726561647920626f756768740000000000000000000000000000000000005f82015250565b5f6112e0600e836111cc565b91506112eb826112ac565b602082019050919050565b5f6020820190508181035f83015261130d816112d4565b9050919050565b7f4e6f2045544800000000000000000000000000000000000000000000000000005f82015250565b5f6113486006836111cc565b915061135382611314565b602082019050919050565b5f6020820190508181035f8301526113758161133c565b9050919050565b5f81905092915050565b50565b5f6113945f8361137c565b915061139f82611386565b5f82019050919050565b5f6113b382611389565b9150819050919050565b7f455448207472616e73666572206661696c6564000000000000000000000000005f82015250565b5f6113f16013836111cc565b91506113fc826113bd565b602082019050919050565b5f6020820190508181035f83015261141e816113e5565b9050919050565b7f546f6b656e206e6f7420736574000000000000000000000000000000000000005f82015250565b5f611459600d836111cc565b915061146482611425565b602082019050919050565b5f6020820190508181035f8301526114868161144d565b9050919050565b7f546f6b656e207072696365206e6f7420736574000000000000000000000000005f82015250565b5f6114c16013836111cc565b91506114cc8261148d565b602082019050919050565b5f6020820190508181035f8301526114ee816114b5565b9050919050565b5f6060820190506115085f830186611155565b6115156020830185611155565b611522604083018461117d565b949350505050565b611533816110cc565b811461153d575f5ffd5b50565b5f8151905061154e8161152a565b92915050565b5f6020828403121561156957611568610fad565b5b5f61157684828501611540565b91505092915050565b7f546f6b656e207472616e73666572206661696c656400000000000000000000005f82015250565b5f6115b36015836111cc565b91506115be8261157f565b602082019050919050565b5f6020820190508181035f8301526115e0816115a7565b9050919050565b5f815190506115f581610fba565b92915050565b5f602082840312156116105761160f610fad565b5b5f61161d848285016115e7565b91505092915050565b7f4e6f20746f6b656e0000000000000000000000000000000000000000000000005f82015250565b5f61165a6008836111cc565b915061166582611626565b602082019050919050565b5f6020820190508181035f8301526116878161164e565b9050919050565b5f6040820190506116a15f830185611155565b6116ae602083018461117d565b939250505056fea26469706673582212200bcbfcacd01f261c2b46db3cc361c65e449cfbbec8ec576fe26da68d9bfa15ef64736f6c634300081e0033","linkReferences":{}},"methodIdentifiers":{"buyWithEth(uint256)":"7649b957","buyWithToken(uint256)":"ac74b42d","ethPrice(uint256)":"d620fb54","hasPurchased(address,uint256)":"11923132","owner()":"8da5cb5b","purchased(address,uint256)":"e597ef12","renounceOwnership()":"715018a6","setBookPrice(uint256,uint256,uint256)":"04ed5917","setTokenAddress(address)":"26a4e8d2","tokenAddress()":"9d76ea58","tokenPrice(uint256)":"d4ddce8a","transferOwnership(address)":"f2fde38b","withdrawEth()":"a0ef91df","withdrawToken()":"ca628c78"},"id":24}